:100000000A128A11DD2F7F305D02031D1328803014
:100010005C02031D132800305B02031D132800300F
:100020005A02031D1328031C162817281828DC2F32
:100030008030831603175C063F3003195D065A04AF
:100040005B04031D24282528302800308316031361
:10005000A3000030A2000030A1000030A000DC2F7F
:100060000D3083160317DA07FB300318FC30DB076B
:100070004A3003184B30DC07003003180130DD072D
:100080005A0883160313A400831603175B0883160C
:100090000313A500831603175C0883160313A60039
:1000A000831603175D0883160313A7001730031088
:1000B000A70CA60CA50CA40CFF3E031D5728240872
:1000C000813EA80025080318013EFF3EA90028082C
:1000D00083160317B0070318B10A83160313290800
:1000E00083160317B107F33083160313A4000430FB
:1000F000A5003530A6003F30A700FF308316031758
:100100005A0583160313A800FF30831603175B05F7
:1001100083160313A9007F30831603175C0583162B
:100120000313AA000030831603175D05831603131B
:10013000AB002808A40729080318290FA028A12824
:10014000A5072A0803182A0FA628A728A6072B0800
:1001500003182B0AA707270883160317DD00831649
:100160000313260883160317DC00831603132508E0
:1001700083160317DB008316031324088316031763
:10018000DA00BF3083120313D7008030D60000306E
:10019000D5000030D400831603175D0883120313C3
:1001A000DB00831603175C0883120313DA0083163F
:1001B00003175B0883120313D900831603175A0829
:1001C00083120313D8000A128A1563220A128A11B5
:1001D00083120313570883160317D90083120313DE
:1001E000560883160317D800831203135508831685
:1001F0000317D70083120313540883160317D6007E
:10020000403083120313D7000030D6000030D500F1
:100210000030D40083160317590883120313DB0040
:1002200083160317580883120313DA008316031783
:10023000570883120313D900831603175608831235
:100240000313D8000A128A1563220A128A11831234
:1002500003135708A3005608A2005508A10054082C
:10026000A00083160317590883120313A7008316EF
:100270000317580883120313A600831603175708A1
:1002800083120313A5008316031756088312031362
:10029000A4000A168A1131260A128A118312031346
:1002A000230883160317C50083120313220883163D
:1002B0000317C40083120313210883160317C30016
:1002C00083120313200883160317C2004508831204
:1002D0000313BD0083160317440883120313BC00E5
:1002E00083160317430883120313BB0083160317F7
:1002F000420883120313BA008316031745088312BA
:100300000313C10083160317440883120313C000AC
:1003100083160317430883120313BF0083160317C2
:10032000420883120313BE000A128A15BB240A1264
:100330008A11831203133D0883160317C900831221
:1003400003133C0883160317C800831203133B08EA
:1003500083160317C700831203133A088316031783
:10036000C600490883120313BD008316031748080B
:1003700083120313BC008316031747088312031369
:10038000BB0083160317460883120313BA008316B3
:100390000317490883120313C10083160317480883
:1003A00083120313C0008316031747088312031335
:1003B000BF0083160317460883120313BE000A12F8
:1003C0008A15BB240A128A11831203133D0883166F
:1003D0000317CD00831203133C0883160317CC00C8
:1003E000831203133B0883160317CB0083120313F6
:1003F0003A0883160317CA003E3083120313D7004E
:10040000CC30D600CE30D5001330D4003E30BD0005
:100410007830BC009E30BB002630BA00831603172C
:100420004D0883120313C100831603174C0883126F
:100430000313C000831603174B0883120313BF0076
:10044000831603174A0883120313BE000A128A1583
:10045000BB240A128A11831203133D08DB003C08F7
:10046000DA003B08D9003A08D8000A128A1563223C
:100470000A128A1183120313570883160317D10037
:1004800083120313560883160317D0008312031335
:10049000550883160317CF008312031354088316DD
:1004A0000317CE004D0883120313BD0083160317F4
:1004B0004C0883120313BC00831603174B088312E6
:1004C0000313BB00831603174A0883120313BA00F1
:1004D00083160317510883120313C10083160317F1
:1004E000500883120313C000831603174F088312AA
:1004F0000313BF00831603174E0883120313BE00B5
:100500000A128A15BB240A128A11831203133D08AA
:10051000831603179700831203133C0883160317EF
:100520009600831203133B0883160317950083126A
:1005300003133A088316031794003F308312031302
:10054000D7002A30D600AA30D500AA30D4003E30D9
:10055000BD009130BC00E930BB00EE30BA0083161C
:1005600003174D0883120313C100831603174C08A9
:1005700083120313C000831603174B08831203135F
:10058000BF00831603174A0883120313BE000A1222
:100590008A15BB240A128A11831203133D08DB005B
:1005A0003C08DA003B08D9003A08D8000A128A153C
:1005B00063220A128A118312031357088316031742
:1005C000D10083120313560883160317D000831239
:1005D0000313550883160317CF008312031354081F
:1005E00083160317CE00490883120313BD00831638
:1005F0000317480883120313BC0083160317470828
:1006000083120313BB0083160317460883120313D8
:10061000BA0083160317510883120313C10083160F
:100620000317500883120313C000831603174F08E3
:1006300083120313BF00831603174E08831203139C
:10064000BE000A128A15BB240A128A1183120313F0
:100650003D08831603179B00831203133C0883167F
:1006600003179A00831203133B088316031799009C
:10067000831203133A08831603179800170883128E
:100680000313D70083160317160883120313D6002B
:1006900083160317150883120313D5008316031757
:1006A000140883120313D400831603171B08831244
:1006B0000313DB00831603171A0883120313DA00EF
:1006C00083160317190883120313D900831603171F
:1006D000180883120313D8000A128A1563220A121B
:1006E0008A1183120313570883160317930083128A
:1006F0000313560883160317920083120313550839
:1007000083160317910083120313540883160317EB
:1007100090003F3083120313BD000030BC00003056
:10072000BB000030BA008316031759088312031365
:10073000C10083160317580883120313C0008316E1
:100740000317570883120313BF00831603175608B5
:1007500083120313BE000A128A15BB240A128A11DF
:10076000831203133D0883160317D100831203136A
:100770003C0883160317D000831203133B0883162B
:100780000317CF00831203133A0883160317CE0012
:10079000590883120313BD008316031758088312E8
:1007A0000313BC0083160317570883120313BB00FF
:1007B00083160317560883120313BA008316031710
:1007C000510883120313C1008316031750088312C4
:1007D0000313C000831603174F0883120313BF00CF
:1007E000831603174E0883120313BE000A128A15DC
:1007F000BB240A128A11831203133D0883160317C0
:10080000C100831203133C0883160317C000831230
:1008100003133B0883160317BF00831203133A0820
:1008200083160317BE00410883120313EB008316DF
:100830000317400883120313EA00831603173F08C7
:1008400083120313E900831603173E088312031370
:10085000E80083160317590883120313EF00831669
:100860000317580883120313EE0083160317570863
:1008700083120313ED008316031756088312031324
:10088000EC000A168A1599220A128A1183120313A0
:100890006B0883160317D500831203136A088316A7
:1008A0000317D40083120313690883160317D300B8
:1008B00083120313680883160317D2005508DD005E
:1008C0005408DC005308DB005208DA000030DA0577
:1008D000F030DB05FF30DC05FF30DD055D08D500BD
:1008E0005C08D4005B08D3005A08D2005508831274
:1008F0000313EB0083160317540883120313EA0053
:1009000083160317530883120313E9008316031792
:10091000520883120313E800831603175908831241
:100920000313EF0083160317580883120313EE0016
:1009300083160317570883120313ED00831603175A
:10094000560883120313EC000A168A1599220A121C
:100950008A11831203136B08831603179F008312F7
:1009600003136A08831603179E0083120313690892
:10097000831603179D008312031368088316031759
:100980009C00450883120313BD0083160317440817
:1009900083120313BC008316031743088312031347
:1009A000BB0083160317420883120313BA00831691
:1009B0000317130883120313D700831603171208B3
:1009C00083120313D600831603171108831203132F
:1009D000D50083160317100883120313D40083165F
:1009E0000317410883120313DB0083160317400823
:1009F00083120313DA00831603173F0883120313CD
:100A0000D900831603173E0883120313D8000A1275
:100A10008A1563220A128A11831203135708C10030
:100A20005608C0005508BF005408BE000A128A15B7
:100A3000BB240A128A11831203133D08831603177D
:100A4000BD00831203133C0883160317BC008312F6
:100A500003133B0883160317BB00831203133A08E2
:100A600083160317BA00410883120313EB008316A1
:100A70000317400883120313EA00831603173F0885
:100A800083120313E900831603173E08831203132E
:100A9000E800831603171F0883120313EF00831661
:100AA00003171E0883120313EE00831603171D0895
:100AB00083120313ED00831603171C08831203131C
:100AC000EC000A168A1599220A128A11831203135E
:100AD0006B0883160317A300831203136A08831697
:100AE0000317A20083120313690883160317A100DA
:100AF00083120313680883160317A0003D088312AE
:100B00000313D700831603173C0883120313D60080
:100B1000831603173B0883120313D50083160317AC
:100B20003A0883120313D400831603172308831291
:100B30000313DB0083160317220883120313DA0062
:100B400083160317210883120313D9008316031792
:100B5000200883120313D8000A128A1563220A128E
:100B60008A1183120313570883160317B9008312DF
:100B70000313560883160317B8008312031355088E
:100B800083160317B7008312031354088316031741
:100B9000B6003008F0003108F1000030F11BFF30E2
:100BA000F200F30001300A168A1548270A128A114A
:100BB000730883160317B5007208B4007108B300F8
:100BC0007008B200B83083120313BD000430BC00BB
:100BD000EA30BB00D930BA008316031755088312D8
:100BE0000313D70083160317540883120313D60088
:100BF00083160317530883120313D50083160317B4
:100C0000520883120313D400831603173908831282
:100C10000313DB0083160317380883120313DA006B
:100C200083160317370883120313D900831603179B
:100C3000360883120313D8000A128A1563220A1297
:100C40008A11831203135708C1005608C0005508C3
:100C5000BF005408BE000A128A15BB240A128A116A
:100C6000831203133D0883160317A700831203138F
:100C70003C0883160317A600831203133B08831650
:100C80000317A500831203133A0883160317A40061
:100C9000270883120313D70083160317260883122D
:100CA0000313D60083160317250883120313D500F8
:100CB00083160317240883120313D4003530BD00B4
:100CC0005430BC002730BB00DB30BA00831603175A
:100CD000350883120313C1008316031734088312E7
:100CE0000313C00083160317330883120313BF00D6
:100CF00083160317320883120313BE000A128A15E3
:100D0000BB240A128A11831203133D08DB003C083E
:100D1000DA003B08D9003A08D8000A128A15632283
:100D20000A128A1183120313570883160317BD0092
:100D300083120313560883160317BC008312031390
:100D4000550883160317BB00831203135408831638
:100D50000317BA003E3083120313BD00DE30BC001F
:100D60006030BB000030BA008316031739088312C5
:100D70000313C10083160317380883120313C0003E
:100D800083160317370883120313BF008316031754
:100D9000360883120313BE000A128A15BB240A12F6
:100DA0008A11831203133D08D7003C08D6003B0884
:100DB000D5003A08D400831603173D0883120313A5
:100DC000DB00831603173C0883120313DA00831633
:100DD00003173B0883120313D900831603173A083D
:100DE00083120313D8000A128A1563220A128A1189
:100DF00083120313570883160317AB0083120313E0
:100E0000560883160317AA00831203135508831686
:100E10000317A90083120313540883160317A800AD
:100E20003E3083120313BD00DE30BC006030BB00D7
:100E30000030BA0083160317550883120313C1004C
:100E400083160317540883120313C0008316031775
:100E5000530883120313BF0083160317520883122B
:100E60000313BE000A128A15BB240A128A118312C8
:100E700003133D08D7003C08D6003B08D5003A08CC
:100E8000D400831603172B0883120313DB00831689
:100E900003172A0883120313DA008316031729089D
:100EA00083120313D9008316031728088312031330
:100EB000D8000A128A1563220A128A1183120313B8
:100EC000570883160317AF008312031356088316BF
:100ED0000317AE0083120313550883160317AD00E2
:100EE00083120313540883160317AC003E30831299
:100EF0000313BD009A30BC002030BB008030BA0024
:100F000083160317350883120313C10083160317D2
:100F1000340883120313C0008316031733088312A7
:100F20000313BF0083160317320883120313BE0096
:100F30000A128A15BB240A128A11831203133D0870
:100F4000D7003C08D6003B08D5003A08D4008316E9
:100F500003172F0883120313DB00831603172E08D1
:100F600083120313DA00831603172D088312031369
:100F7000D900831603172C0883120313D8000A1212
:100F80008A1563220A128A118312031357088316E3
:100F90000313A30083120313560883160313A2003E
:100FA00083120313550883160313A100831203133E
:100FB000540883160313A00008008317EA30FD00CD
:100FC0001930FE007530FF00DE3084000A168A15E5
:100FD000B5210A128A111030840030300A168A15A1
:100FE00055210A128A118313DF308400EA300A1671
:100FF0008A1555210A128A1183010A168A11AD2C0D
:10100A0008000310831203136A0D6B0D8316031372
:10101A00A1002108031D122813281E28003083125C
:10102A000313EB000030EA000030E9000030E8006A
:10103A009328831203136808EC006908ED006A0814
:10104A00EE006B08EF001F300310EF0CEE0CED0CF6
:10105A00EC0CFF3E031D29286C0883160313A0001D
:10106A0083120313EA17FF30E805FF30E905FF3062
:10107A00EA050030EB05963083160313A102A11F7F
:10108A004728482866282108803A973E03184E28A0
:10109A004F28502813280130031083120313EB0C36
:1010AA00EA0CE90CE80CFF3E031D51280130FF0051
:1010BA007F0883160313A107031D64286528502897
:1010CA00812820302102031C6B286C287C281328D5
:1010DA00013083120313EC000310E80DE90DEA0D49
:1010EA00EB0DEC0B7128013083160313A1022108C2
:1010FA00031D802881286D28200803198528862841
:10110A00932883120313E809E909EA09EB09E80AB3
:10111A000319E90A0319EA0A0319EB0A0800C1309C
:10112A0083120313D700A030D6000030D500003058
:10113A00D400831603132C08F0002D08F100F201E5
:10114A00F30100300A168A1548270A128A1573080D
:10115A0083120313A3007208A2007108A100700889
:10116A00A0004630A7009F30A600D830A500003066
:10117A00A4000A168A1131260A128A158312031349
:10118A002308DB002208DA002108D9002008D80049
:10119A000A128A1563220A128A1583120313570840
:1011AA0083160313B300831203135608831603131B
:1011BA00B20083120313550883160313B100831276
:1011CA000313540883160313B00041308312031328
:1011DA00A3001D30A2004730A100AE30A000831644
:1011EA000313330883120313A70083160313320869
:1011FA0083120313A6008316031331088312031301
:10120A00A50083160313300883120313A4000A16D9
:10121A008A1131260A128A158312031323088316A8
:10122A000313B70083120313220883160313B600AD
:10123A0083120313210883160313B50083120313C1
:10124A00200883160313B4003708A3003608A20047
:10125A003508A1003408A0000A168A1118220A12B9
:10126A008A15831603132308BB002208BA00210833
:10127A00B9002008B8002E08083E84008317000829
:10128A0083120313A000840A0008A100840A00083C
:10129A00A200840A0008A300831603132E08043E42
:1012AA008400000883120313E800840A0008E90096
:1012BA00840A0008EA00840A0008EB008316031374
:1012CA003B0883120313EF00831603133A088312B1
:1012DA000313EE0083160313390883120313ED0078
:1012EA0083160313380883120313EC000A168A15AF
:1012FA0099220A128A15831203136B08A7006A0837
:10130A00A6006908A5006808A4000A168A113126F1
:10131A000A128A1583120313230883160313BF00C4
:10132A0083120313220883160313BE0083120313C6
:10133A00210883160313BD008312031320088316A2
:10134A000313BC002E0884008317000883120313BA
:10135A00D400840A0008D500840A0008D600840A4A
:10136A000008D700831603133F0883120313DB0018
:10137A00831603133E0883120313DA00831603133A
:10138A003D0883120313D900831603133C08831202
:10139A000313D8000A128A1563220A128A158312C5
:1013AA000313570883160313C50083120313560841
:1013BA0083160313C40083120313550883160313F9
:1013CA00C30083120313540883160313C2000130A7
:1013DA00C6000030C7000030F3000030F2000030D1
:1013EA00F1000030F0004508F7004408F600430811
:1013FA00F5004208F4000A168A15F3250A128A151E
:10140A000318082A092A5C2A83160313C001C1019A
:10141A00292A0A30F0000030F10083160313470826
:10142A00F3004608F2000A168A15BD220A128A1526
:10143A00710883160313C7007008C6000130C0077D
:10144A000318C10A0030C107450883120313EB00D1
:10145A0083160313440883120313EA008316031343
:10146A00430883120313E900831603134208831205
:10147A000313E8000A128A1506200A128A1583162F
:10148A0003134108803AAF00831203136908803AB4
:10149A00831603132F02031D582A831203136808A5
:1014AA00831603134002031C5B2A5C2A0E2A831646
:1014BA0003134708AD004608AC0008008312031363
:1014CA0057088039E4005708DC005C07E600D61F9D
:1014DA006F2A702A712A661466080319752A762AF1
:1014EA00862A660A031D7A2A7B2A832A0030D700B5
:1014FA000030D6000030D5000030D400D617D7010E
:10150A008E2A0030D7000030D6000030D5000030D7
:10151A00D4005B088039E500650864060319962A39
:10152A00972A982A64175B08DC005C07E500DA1F33
:10153A009F2AA02AA12A651465080319A52AA62AA2
:10154A00B62A650A031DAA2AAB2AB32A0030DB0091
:10155A000030DA000030D9000030D800DA17DB0199
:10156A00BE2A0030DB000030DA000030D90000303B
:10157A00D800660865020318C32AC42AEA2A641F27
:10158A00C72AC82ACC2A8030FF007F08E4066608EA
:10159A00E7006508E6006708E5005408E700580810
:1015AA00D4006708D8005508E7005908D50067082D
:1015BA00D9005608E7005A08D6006708DA00570823
:1015CA00E7005B08D7006708DB00E7016508DC0075
:1015DA00DD015D08DF0066085C02DE00031CDF0334
:1015EA005F08803AFF0080307F02031DFE2A1A300E
:1015FA005E02031C012B022B392B8312031357089B
:10160A00560455045404031D0B2B0D2B01300E2BCD
:10161A000030E7000030D7000030D6000030D50097
:10162A000030D4006508E600412B671C1D2B1E2BD9
:10163A00252B6708DC0003105C0C0138E700272B18
:10164A000310E70C541C2A2B2B2B2C2BE7170130E9
:10165A00DC00570DD70CD60CD50CD40CDC0B2E2B7A
:10166A000130FF007F08E60783120313650866024C
:10167A00031C402B412B1A2B641B442B452B8E2B0E
:10168A006608031D492B4A2B532B0030D700003024
:10169A00D6000030D5000030D400BA2C5808D40740
:1016AA00590803110318013E03195C2BD5075A0880
:1016BA0003110318013E0319632BD6075B080311B4
:1016CA000318013E03196A2BD707571C6D2B6E2B83
:1016DA00422C671C712B722B792B6708DC000310D4
:1016EA005C0C0138E7007B2B0310E70C541C7E2BA3
:1016FA007F2B802BE7170130DC00570DD70CD60C57
:10170A00D50CD40CDC0B822B0130FF007F08E607D6
:10171A00422C5708803AFF005B08803A7F02031D7B
:10172A00A02B5A085602031DA02B59085502031D67
:10173A00A02B580854020318A32BA42BFC2BFF3010
:10174A00DC00FF30DD00FF30DE00FF30DF0058082C
:10175A00E0005908E1005A08E2005B08E300540877
:10176A00E0025508031C550FBB2BBC2BE10256089F
:10177A00031C560FC12BC22BE2025708031C570F3A
:10178A00C72BC82BE3026008DC0761080318610F46
:10179A00CF2BD02BDD0762080318620FD52BD62B6F
:1017AA00DE0763080318630ADF075F08D7005E08CD
:1017BA00D6005D08D5005C08D4008030FF007F08A1
:1017CA00E406E709E70A6708031DEC2BED2B0A2C50
:1017DA000130D407003003180130D5070030031850
:1017EA000130D607003003180130D7070A2C5808F1
:1017FA00D4025908031C590FD5025A08031C5A0F60
:10180A00D6025B08031C5B0FD7025708560455041F
:10181A005404031D112C122C3E2C6708031D162C90
:10182A00172C3E2C0030D7000030D6000030D500EF
:10183A000030D400BA2C0130DC000310D40DD50DD1
:10184A00D60DD70DDC0B222CE71F2C2C2D2C2E2C81
:10185A005414671C312C322C352C0314E70D372C09
:10186A000310E70D660803193B2C3C2C3E2C013073
:10187A00E602D61F412C422C202CE501E71F462CFC
:10188A00472C552C67087F3903194C2C4D2C502CAA
:10189A00E501E50A552C541C532C542C552C4D2C7F
:1018AA0065080319592C5A2C8E2C0130D4070030A4
:1018BA0003180130D507003003180130D60700306D
:1018CA0003180130D707571C6B2C6C2C8E2C54082C
:1018DA00DC005508DD005608DE005708DF0001303D
:1018EA00E0005F0DDF0CDE0CDD0CDC0CE00B762C6F
:1018FA005F08D7005E08D6005D08D5005C08D400F2
:10190A00660A0319892C8A2C8E2C0130FF007F0865
:10191A00E607660A0319922C932C982C6608031D75
:10192A00972C982CA62C0030D7000030D600003017
:10193A00D5000030D4006608031DA42CA52CA62CC3
:10194A00E401661CA92CAA2CAC2CD617B02C7F302B
:10195A00FF007F08D6056608DC0003105C0CD70080
:10196A00E41FB82CB92CBA2CD7170800831203131A
:10197A003D088039C7003D08C2004207CD00BC1FA0
:10198A00C72CC82CC92C4D144D080319CD2CCE2CAC
:10199A00DD2C4D0A031DD22CD32CDB2C0030BD00CC
:1019AA000030BC000030BB000030BA00BC17E52C88
:1019BA000030BD000030BC000030BB000030BA006F
:1019CA0041088039FF007F08C7064108C200420764
:1019DA00CC00C01FF12CF22CF32C4C144C08031928
:1019EA00F72CF82C072D4C0A031DFC2CFD2C052D79
:1019FA000030C1000030C0000030BF000030BE001F
:101A0A00C0170F2D0030C1000030C0000030BF00E9
:101A1A000030BE004C080319132D142D192D4D0842
:101A2A00031D182D192D222D0030BD000030BC00D9
:101A3A000030BB000030BA00FF2F3A08F00040081F
:101A4A000A168A15E2220A128A15710883120313EA
:101A5A00D3007008D2005208C200C301C401C501F4
:101A6A004508CB004408CA004308C9004208C80018
:101A7A005308C200C301C401C5014508D100440886
:101A8A00D0004308CF004208CE003B08F0003F08D0
:101A9A000A168A15E2220A128A157108831203139A
:101AAA00D3007008D2005208C200C301C401C501A4
:101ABA004208C807430803110318013E0319662D9B
:101ACA00C907440803110318013E03196D2DCA07FB
:101ADA00450803110318013E0319742DCB07530857
:101AEA00C200C301C401C5014208CE07430803115D
:101AFA000318013E0319822DCF0744080311031866
:101B0A00013E0319892DD007450803110318013E28
:101B1A000319902DD1073C08F0003E080A168A15D1
:101B2A00E2220A128A15710883120313D30070087D
:101B3A00D2005208C200C301C401C5014208C80745
:101B4A00430803110318013E0319AC2DC9074408C1
:101B5A0003110318013E0319B32DCA0745080311DF
:101B6A000318013E0319BA2DCB075308C200C3015B
:101B7A00C401C5014208CE07430803110318013EF8
:101B8A000319C82DCF07440803110318013E03198E
:101B9A00CF2DD007450803110318013E0319D62D8E
:101BAA00D1070830C2000310C80DC90DCA0DCB0DEC
:101BBA00C20BD82D3B08F0003E080A168A15E2220D
:101BCA000A128A15710883120313D3007008D2000F
:101BDA005208C2005308C300C401C5014208C8071D
:101BEA00430803110318013E0319FC2DC9074408D1
:101BFA0003110318013E0319032ECA0745080311EE
:101C0A000318013E03190A2ECB073A08F0003F08D1
:101C1A000A168A15E2220A128A1571088312031318
:101C2A00D3007008D2005208C2005308C300C4018E
:101C3A00C5014208C807430803110318013E0319E6
:101C4A00272EC907440803110318013E03192E2E33
:101C5A00CA07450803110318013E0319352ECB079D
:101C6A000830C2000310C80DC90DCA0DCB0DC20B36
:101C7A00372E3A08F0003E080A168A15E2220A129E
:101C8A008A15710883120313D3007008D200520810
:101C9A00C2005308C300C401C5014208C80743086B
:101CAA0003110318013E03195B2EC90744080311E7
:101CBA000318013E0319622ECA07450803110318C7
:101CCA00013E0319692ECB073B08F00040080A16AB
:101CDA008A15E2220A128A15710883120313D300A5
:101CEA007008D2005208C2005308C300C401C501DB
:101CFA004208CE07430803110318013E0319862E32
:101D0A00CF07440803110318013E03198D2ED0078B
:101D1A00450803110318013E0319942ED1073C0804
:101D2A00F0003F080A168A15E2220A128A1571087B
:101D3A0083120313D3007008D2005208C20053085A
:101D4A00C300C401C5014208CE07430803110318A2
:101D5A00013E0319B12ECF07440803110318013EAF
:101D6A000319B82ED007450803110318013E0319B9
:101D7A00BF2ED1073C08F00040080A168A15E22255
:101D8A000A128A15710883120313D3007008D2004D
:101D9A005208C2005308C300C401C5010830031029
:101DAA00C20DC30DC40DC50DFF3E031DD42E42083E
:101DBA00CE07430803110318013E0319E52ECF0786
:101DCA00440803110318013E0319EC2ED0074508F5
:101DDA0003110318013E0319F32ED1074808C20064
:101DEA004908C3004A08C4004B08C500183003104C
:101DFA00C50CC40CC30CC20CFF3E031DFC2E4208CA
:101E0A00CE07430803110318013E03190D2FCF070C
:101E1A00440803110318013E0319142FD00745087B
:101E2A0003110318013E03191B2FD1070830C20002
:101E3A000310C80DC90DCA0DCB0DC20B1D2F4D08BD
:101E4A004C07C200C301C30D4208823ED2004308B8
:101E5A000318013EFF3ED3004F2F0130C20003108A
:101E6A00CE0DCF0DD00DD10DC20B342FCB1F3E2F6F
:101E7A003F2F402F4E140130C2000310C80DC90D68
:101E8A00CA0DCB0DC20B422FFF30D2070318D30A5B
:101E9A00FF30D307D01F522F532F322FCC01CB1F25
:101EAA00572F582F742FFF304805C200FF304905BD
:101EBA00C300FF304A05C4007F304B05C500450802
:101ECA0044044304420403196B2F6C2F6F2FCC0177
:101EDA00CC0A742F4E1C722F732F742F6C2F4C0840
:101EEA000319782F792FAA2F0130CE070030031853
:101EFA000130CF07003003180130D0070030031833
:101F0A000130D107511C8A2F8B2FAA2F4E08C200ED
:101F1A004F08C3005008C4005108C5000130C6006C
:101F2A00450DC50CC40CC30CC20CC60B952F450835
:101F3A00D1004408D0004308CF004208CE00013047
:101F4A00D2070318D30A0030D3075308803AFF0098
:101F5A0080307F02031DB32FFF305202031CB62FBD
:101F6A00B72FC22F7F3083120313D1008030D000E5
:101F7A000030CF000030CE00F32F83120313530832
:101F8A00803AFF0080307F02031DCD2F01305202BC
:101F9A000318D02FD12FDD2F003083120313D10065
:101FAA000030D0000030CF000030CE00C701F32F40
:101FBA00831203135208CD00FF30CE05FF30CF0540
:101FCA007F30D0050030D1054D1CEC2FED2FEE2FC0
:101FDA00D0174D08C2000310420CD1004708FF0079
:101FEA007F08D1045108BD005008BC004F08BB004F
:061FFA004E08BA000800C9
:102002005E3083120313AC003E08AE003D08AD0003
:1020120041300A168A1539220A168A1101300A1627
:102022008A15C4210A168A11213083120313C000B3
:102032007530BF00BF0B1B28C00B1B282028803027
:102042000A168A15C4210A168A114130F40000309A
:10205200F50041300A168A15EE210A168A11700817
:10206200F6000A168A1558220A168A1108003F300D
:1020720083120313D7008030D6000030D500003021
:10208200D4003F30BD008030BC000030BB000030C7
:10209200BA004330A3003430A2000030A100003067
:1020A200A0008316031322085A3EF00023080318E7
:1020B200013E003EF100F201F11BF2037208F3004F
:1020C20001300A168A1548270A168A1173088312E4
:1020D2000313A7007208A6007108A5007008A400E7
:1020E2000A168A1131260A168A118312031323084B
:1020F200C1002208C0002108BF002008BE000A1249
:102102008A15BB240A168A11831203133D08DB00C9
:102112003C08DA003B08D9003A08D8000A128A15AE
:1021220063220A168A1183120313570883160313B4
:10213200A90083120313560883160313A8008312FF
:102142000313550883160313A700831203135408BD
:1021520083160313A600290883120313C1008316F2
:102162000313280883120313C000831603132708DE
:1021720083120313BF00831603132608831203136B
:10218200BE004530BD00C330BC005030BB00003043
:10219200BA000A128A15BB240A168A118312031383
:1021A2003D08DB003C08DA003B08D9003A08D800B9
:1021B200BF30D7008030D6000030D5000030D400C8
:1021C2000A128A1563220A168A1183120313570808
:1021D200EB005608EA005508E9005408E8000A1224
:1021E2008A1506200A168A118312031369088316B8
:1021F2000313AB0083120313680883160313AA00A8
:102202002B08A5002A08A4000310A50CA40C031097
:10221200A50CA40C24088312031395008316031340
:102222002A080339A40004300310A40DFF3E031D45
:102232001529831203131708CF39831603132404B5
:102242008312031397000800F50041300A168A151D
:1022520069210A168A1154300A168A1569210A164A
:102262008A112B300A168A1569210A168A114330FF
:102272000A168A1569210A168A114D300A168A151C
:1022820069210A168A1147300A168A1569210A1627
:102292008A1146300A168A1569210A168A113D30BA
:1022A2000A168A1569210A168A1131300A168A1508
:1022B20069210A168A110D300A168A1569210A1631
:1022C2008A110A300A168A1569210A168A111A30E9
:1022D200F4005E30F3006E30F200F20B6E29F30B65
:1022E2006E29F40B6E29000041300A168A15692105
:1022F2000A168A1154300A168A1569210A168A1199
:102302002B300A168A1569210A168A1143300A16D9
:102312008A1569210A168A114D300A168A15692111
:102322000A168A1147300A168A1569210A168A1175
:1023320053300A168A1569210A168A113D300A1687
:102342008A1569210A168A1122300A168A1569210C
:102352000A168A11BC29750884000A168A150A20F1
:102362000A168A110A168A1569210A168A1101307B
:10237200FF007F08F507750884000A168A150A20EF
:102382000A168A11003A031DC729C829AC2922302E
:102392000A168A1569210A168A110D300A168A153B
:1023A20069210A168A110A300A168A1569210A1643
:1023B2008A111A30F4005E30F3006E30F200F20B34
:1023C200E029F30BE029F40BE0290000F829710859
:1023D20084000A168A150A200A168A110A168A1514
:1023E20069210A168A110130FF007F08F10771087E
:1023F20084000A168A150A200A168A11003A031D59
:10240200032A042AE8291A300A168A1569210A16AB
:102412008A111A30F4005E30F3006E30F200F20BD3
:10242200102AF30B102AF40B102A0000080083165E
:102432000313620883160317DD0083160313610872
:1024420083160317DC008316031360088316031731
:10245200DB00831603135F0883160317DA00831663
:102462000313230883160317DD00831603132208C0
:1024720083160317DC008316031321088316031740
:10248200DB0083160313200883160317DA00B0015A
:10249200B1015D08031D5D2A80305C02031D592ACB
:1024A20000305B02031D592A00305A02031D592ACB
:1024B200031C5C2A5D2A652A83160317DD1F622A24
:1024C200652A0A128A110328831603175A088316EB
:1024D2000313A400831603175B0883160313A500D6
:1024E200831603175C0883160313A60083160317CB
:1024F2005D0883160313A70001300310A40DA50D78
:10250200A60DA70DFF3E031D7E2A270826042504DB
:102512002404031D8D2A8E2AB12AFF308316031745
:10252200DD008030DC000030DB000030DA005D08C6
:1025320083160313A300831603175C088316031381
:10254200A200831603175B0883160313A1008316E8
:1025520003175A0883160313A0000A128A11DC2FEC
:1025620083160317DD1FB62AB72ADE2A2130831607
:102572000313E7000030E8007F3083160317DD0005
:10258200FF30DC00FF30DB00FF30DA005D0883162D
:102592000313A300831603175C0883160313A20018
:1025A200831603175B0883160313A1008316031710
:1025B2005A0883160313A000AE2AE730B0070318A7
:1025C200B10AFF30B1074C3083120313BD00003053
:1025D200BC000030BB000030BA008316031323088E
:1025E20083120313C10083160313220883120313F9
:1025F200C00083160313210883120313BF0083163E
:102602000313200883120313BE000A128A15BB2487
:102612000A168A11831203133D0883160313A300BB
:10262200831203133C0883160313A20083120313BD
:102632003B0883160313A100831203133A0883167F
:102642000313A000230883160317DD008316031368
:10265200220883160317DC0083160313210883164E
:102662000317DB0083160313200883160317DA000F
:102672000A128A11302883120313A1007A088400F7
:102682008313000884000A168A150A200A168A1182
:10269200253A031D4D2B4E2B952C0130FF007A0855
:1026A20084007F08800783160313E301E40103100B
:1026B200003003180130E900FF30E500FF30E6008A
:1026C2007A088400000883120313A20022088400FF
:1026D2000A168A150A200A168A11643A0319722BFD
:1026E200732B7F2B220884000A168A150A200A16E9
:1026F2008A11693A031D7E2B7F2B0B2C7B088400E9
:102702000008FF00023080077F0884000008A30051
:10271200840A0008A4007A0884002208013E80008E
:102722002030A700A41B962B982B0130992B003048
:10273200A0000130A7022708103E84000A30F000F2
:102742000030F1002408F3002308F2000A168A156B
:102752002F240A168A117108F7007008F6000A166B
:102762008A158E210A168A117608303E8317800058
:102772000A30F0000030F100831203132408F30042
:102782002308F2000A168A1588240A168A1171088B
:1027920083120313A4007008A3002308240403195E
:1027A200D32BD42BD92B2708031DD82BD92B9A2B0B
:1027B20027080319DD2BDE2B042C20080319E22B3A
:1027C200E32B042C0130A7022708103E84002D3091
:1027D20083178000042C2708103E8400831700080A
:1027E200FC00FD017C08F0007D08F1002108F200E8
:1027F2000A168A15D9230A168A110130FF007F08AA
:1028020083120313A70720302706031D092C0A2C65
:10281200EC2BAC2C220884000A168A150A200A1610
:102822008A11753A031D162C172C8D2C7B088400F7
:102832000008FF00023080077F0884000008A30020
:10284200840A0008A4007A0884002208013E80005D
:10285200822C2030A7000130A7022708103E8400F6
:102862000A30F0000030F1002408F3002308F200DF
:102872000A168A1509230A168A117008303E831730
:1028820080000A30F0000030F100831203132408A4
:10289200F3002308F2000A168A1543230A168A1146
:1028A200710883120313A4007008A30023082404F0
:1028B20003195C2C5D2C7B2C2708031D612C622CD8
:1028C2002C2C7B2C2708103E840083170008FC0068
:1028D200FD017C08F0007D08F1002108F2000A16D3
:1028E2008A15D9230A168A110130FF007F08831244
:1028F2000313A70720302706031D802C812C632C8D
:10290200AC2C220884000A168A150A200A168A119B
:10291200753A03192A2C8D2C0130FF007A088400A5
:102922007F0883138007AC2C7A0884000008840097
:102932000A168A150A200A168A11FC00FD017C0873
:10294200F0007D08F1002108F2000A168A15D92349
:102952000A168A118D2C0800831603130713871792
:102962000714871086018801881107118312031347
:1029720088110A168A1505220A168A110A168A155C
:102982009F210A168A110A168A1581210A168A11AE
:102992000A168A155D210A168A110A168A151E223E
:1029A2000A168A11710883160313DE007008DD000F
:1029B2000A168A1595260A168A1183120313270806
:1029C20083160313DC0083120313260883160313F2
:1029D200DB0001305E02F53003195D02031CF22CAC
:1029E200F32CA32D8312031388155A308316031375
:1029F200A2000030A3000A168A1138200A168A1192
:102A0200023083160313DA000430D900B930D8003B
:102A1200D80B092DD90B092DDA0B092D102D0130F8
:102A22000A168A15C4210A168A1121308316031345
:102A3200D9007530D800D80B1C2DD90B1C2D212D97
:102A4200831603135E08C9005D08C8000A168A15BA
:102A520087230A168A11023083160313DA004530DF
:102A6200D900A930D800D80B342DD90B342DDA0B6C
:102A7200342D01300A168A15C4210A168A11213012
:102A820083160313D9007530D800D80B462DD90B05
:102A9200462D4B2D831603135C0883120313BE00CD
:102AA200831603135B0883120313BD000A168A11EF
:102AB20001200A168A11023083160313DA00453008
:102AC200D900A930D800D80B642DD90B642DDA0BAC
:102AD200642D01300A168A15C4210A168A11213082
:102AE20083160313D9007530D800D80B762DD90B75
:102AF200762D7B2D80300A168A15C4210A168A117A
:102B02004430F4008030F5000E30F6000A168A15C3
:102B120058220A168A11213083160313D900753000
:102B2200D800D80B922DD90B922D972D2130F10080
:102B320053300A168A1125210A168A1183120313A9
:102B42008811222E83120313881101300A168A1566
:102B5200C4210A168A11213083160313D900753055
:102B6200D800D80BB22DD90BB22DB72D8316031373
:102B72005E08C9005D08C8000A168A1587230A166E
:102B82008A11023083160313DA004530D900A930C6
:102B9200D800D80BCA2DD90BCA2DDA0BCA2D013099
:102BA2000A168A15C4210A168A11213083160313C4
:102BB200D9007530D800D80BDC2DD90BDC2DE12DD6
:102BC200831603135C0883120313BE0083160313D8
:102BD2005B0883120313BD000A168A1101200A162C
:102BE2008A11023083160313DA004530D900A93066
:102BF200D800D80BFA2DD90BFA2DDA0BFA2D0130A9
:102C02000A168A15C4210A168A1121308316031363
:102C1200D9007530D800D80B0C2ED90B0C2E112EE2
:102C220080300A168A15C4210A168A113430F4003B
:102C32008030F5000F30F6000A168A1558220A165F
:102C42008A11213083160313D9007530D800D80BAE
:102C5200282ED90B282E2D2ECE2C0A128A110028AE
:102C62008312031327088039B1002708A800280718
:102C7200B800A61F3D2E3E2E3F2E381438080319E9
:102C8200432E442E542E380A031D482E492E512E0F
:102C92000030A7000030A6000030A5000030A400DC
:102CA200A617A7015C2E0030A7000030A600003056
:102CB200A5000030A40023088039FF007F08B10678
:102CC2002308A8002807B900A21F682E692E6A2EC1
:102CD2003914390803196E2E6F2E7F2E390A031DFF
:102CE200732E742E7C2E0030A3000030A200003020
:102CF200A1000030A000A217A301872E0030A3007C
:102D02000030A2000030A1000030A00023082204FD
:102D120021042004031D8E2E8F2EA82E0030A70022
:102D22000030A6000030A5000030A4008030A604C8
:102D32007F30A7043108FF007F08A7042708A300FB
:102D42002608A2002508A1002408A000FF2F3808A9
:102D5200031DAC2EAD2EB62E0030A3000030A20013
:102D62000030A1000030A000FF2F3808A800A90100
:102D72002908AB0039082802AA00031CAB032A0861
:102D82007F3EB2002B080318013E003EB300270825
:102D9200B0002608AF002508AE002408AD000030C0
:102DA200A7000030A6000030A5000030A4000030CB
:102DB200B7000030B6000030B5000030B400B901F1
:102DC2002C2F39080319E62EE72E072F0130A80011
:102DD2000310AD0DAE0DAF0DB00DA80BE92E0130F5
:102DE200A8000310A40DA50DA60DA70DA80BF22E89
:102DF200B71FFC2EFD2EFE2E24140130A800031056
:102E0200B40DB50DB60DB70DA80B002F2308300277
:102E1200031D152F22082F02031D152F21082E0234
:102E2200031D152F20082D02031C182F192F282FE0
:102E320037172008AD022108031C210FAE02220819
:102E4200031C220FAF022308031C230FB002013020
:102E5200FF007F08B9071A303902031C312F322FC5
:102E6200E22E30082F042E042D040319392F3A2F95
:102E7200592F3414592F0130A8000310A40DA50DA9
:102E8200A60DA70DA80B3E2FB71F482F492F4A2F7B
:102E920024140130A8000310B40DB50DB60DB70D02
:102EA200A80B4C2FFF30B2070318B30AFF30B30749
:102EB200A61F5C2F5D2F3C2FB901B71F612F622F18
:102EC2007E2FFF303405A800FF303505A900FF3002
:102ED2003605AA007F303705AB002B082A042904E7
:102EE20028040319752F762F792FB901B90A7E2F7D
:102EF200241C7C2F7D2F7E2F762F39080319822FD9
:102F0200832FB42F0130A407003003180130A50726
:102F1200003003180130A607003003180130A7075C
:102F2200271C942F952FB42F2408A8002508A90048
:102F32002608AA002708AB000130AC002B0DAB0C11
:102F4200AA0CA90CA80CAC0B9F2F2B08A7002A08CF
:102F5200A6002908A5002808A4000130B20703181A
:102F6200B30A0030B3073308803AFF0080307F0293
:102F7200031DBD2FFF303202031CC02FC12FCF2FE4
:102F8200FF3083120313B2000030B3000030A700F9
:102F92000030A6000030A5000030A4008312031305
:102FA2003308803AFF0080307F02031DDA2F0130A0
:102FB20032020318DD2FDE2FEB2F83120313B2012F
:102FC200B3010030A7000030A6000030A500003099
:102FD200A400B101831203133208B800381CF22F87
:102FE200F32FF52FA617F92F7F30FF007F08A605D4
:102FF2003808A8000310280CA7009B2E0800FF1B0E
:103002000A2883137F1883170008840A0319FF0A0A
:10301200080018308A000408840A82070034263423
:103022009E3478343E34EE34E93491343E341334F1
:10303200CE34CC343E34AA34AA342A343F34DB347E
:10304200273454343534803420349A343E34D934DD
:10305200EA340434B83400346034DE343E34473465
:103062006134733420344C34653461346B3420342D
:10307200443465347434653463347434653464348C
:10308200213400344E346F34203467346134733465
:103092002034643465347434653463347434653490
:1030A2006434003447346134733420344C3465342E
:1030B20061346B34213421342134213421342134DC
:1030C20000343034373437343234393430343034F5
:1030D20033343834333400342534643420346734A0
:1030E200723461346D3473340034253475342034D1
:0830F200503450344D34003419
:1032AA0064008001840A04060319003404065629BE
:1032BA008316031307138717203099009816831271
:1032CA000313981718160800F00083160313981CA6
:1032DA006F2970296A29700883120313990008005C
:1032EA0033343334133440349A34993499343E3471
:1032FA008534EB34D134BE34F9308316031392008B
:10330A0007308312031392000C3097000F30950098
:10331A000800F71B9129922993299E297609F8001A
:10332A007709F900F80A0319F90A7808F600790802
:10333A00F70008000130831203139F008E308316B2
:10334A0003139F00831203139E01831603139E0126
:10335A00831203131F1408007E088A007F08820064
:10336A000A168A15B1210A168A158000840A0408E9
:10337A007D0603190034FF0A0319FE0AB529F20073
:10338A00720883120313860008108810081521306A
:10339A00F1007630F000F00BD029F10BD0290000B3
:1033AA008312031308110800F20072088312031330
:1033BA0086000814881008152130F1007630F000D4
:1033CA00F00BE529F10BE52900008312031308111C
:1033DA000800F3007308F200F6290130FF007F08A5
:1033EA00F3077308840083130008031DFD29FE29CF
:1033FA00F22972087302F000F101F01BF1030800D0
:10340A0038300A168A15C4210A168A1506300A1691
:10341A008A15C4210A168A150C300A168A15C4217F
:10342A000A168A1501300A168A15C4210A168A153F
:10343A000800C730831203139F052930F200F20BEC
:10344A00242A0000831203131F151F192D2A2E2A5E
:10345A002A2A1E08F400831603131E08F3007408B0
:10346A00F1007308F000080083120313B1002D3035
:10347A00B0003108B200B401B501BB01BC012C088F
:10348A00A8003030A90032300A168A1578220A16A6
:10349A008A158312031334083107AF002F088400FA
:1034AA00831380010800F701712A770874078400E2
:1034BA0075080318750A83120313FF000A168A1582
:1034CA0000200A168A150A168A15D9210A168A159B
:1034DA000130FF007F08F70776087702031C762A77
:1034EA00772A5A2A080083120313AA002808AB0075
:1034FA00882A2B30FA002908FB002A080A168A11A2
:10350A003C230A168A15831203132B0884000A1611
:10351A008A150A200A168A15003A031D952A962A40
:10352A007E2AA801A9010800803083120313EB0642
:10353A006F08D7006E08D6006D08D5006C08D40055
:10354A006B08DB006A08DA006908D9006808D80045
:10355A000A128A1563220A168A1583120313570858
:10356A00EB005608EA005508E9005408E80008008C
:10357A00F401F501701CC22AC32AC92A7208F40789
:10358A000318F50A7308F50701300310F20DF30D5D
:10359A00FF3E031DCA2A01300310F10CF00CFF3E56
:1035AA00031DD12A70087104031DDC2ADD2ABF2AF3
:1035BA007508F1007408F0000800F800F401F5013C
:1035CA007008F200F3017208F6007308F700781C1D
:1035DA00EF2AF02AF62A7608F4070318F50A77087C
:1035EA00F50701300310F60DF70DFF3E031DF72A0C
:1035FA000310F80C7808031D032B042BEC2A75081A
:10360A00F1007408F00008007008710403190E2B09
:10361A000F2B3E2BF401F40A1D2B01300310F00D81
:10362A00F10DFF3E031D132B0130FF007F08F40745
:10363A00F11F202B212B122B71087302031D272B3C
:10364A0070087202031C2A2B2B2B312B7008F202F2
:10365A007108031CF303F30201300310F10CF00CA0
:10366A00FF3E031D322B0130F402031D3D2B3E2B7E
:10367A00212B7308F1007208F0000800F401F5012B
:10368A007008710403194A2B4B2B822BF601F60A98
:10369A00592B01300310F00DF10DFF3E031D4F2B86
:1036AA000130FF007F08F607F11F5C2B5D2B4E2BC4
:1036BA0001300310F40DF50DFF3E031D5E2B71085A
:1036CA007302031D6A2B70087202031C6D2B6E2B8A
:1036DA00752B7008F2027108031CF303F3027414C9
:1036EA0001300310F10CF00CFF3E031D762B013064
:1036FA00F602031D812B822B5D2B7508F1007408DD
:10370A00F0000800831603134908AD004808AC000E
:10371A00DE30AE000A128A1594200A168A1583161C
:10372A0003132D08D7002C08D60001300A168A1573
:10373A00C4210A168A15213083160313CB0075306B
:10374A00CA00CA0BA62BCB0BA62BAB2B80300A16B2
:10375A008A15C4210A168A15673083120313AC002E
:10376A0083160313570883120313AE008316031339
:10377A00560883120313AD00CC300A168A15392273
:10378A000A168A15CC30F4000030F500CC300A163F
:10379A008A15EE210A168A157008F6000A168A1585
:1037AA0058220A168A15080072080319DD2BDE2B27
:1037BA00E32B7208031DE22BE32BEA2B70080A1293
:1037CA008A1505200A168A152E2C7208093E8400CD
:1037DA0083130008F300840A0008F40073087404D1
:1037EA000319F82BF92B172C7208093E84000008DC
:1037FA00F300840A0008F4007208023E84000008FC
:10380A00F500840A0008F6007608803AF700740882
:10381A00803A7702031D132C730875020318162CBD
:10382A00172C2E2C7208023E840083130008F30022
:10383A007208840000087307F40074088400700892
:10384A0080007208023E840001308007840A03184F
:10385A00800A0800F501F31F332C342C3B2CF209A3
:10386A00F309F20A0319F30AF501F50AF11F3E2CCE
:10387A003F2C442CF009F109F00A0319F10A7008E7
:10388A0071040319492C4A2C792CF401F40A582C96
:10389A0001300310F00DF10DFF3E031D4E2C0130D7
:1038AA00FF007F08F407F11F5B2C5C2C4D2C71087C
:1038BA007302031D622C70087202031C652C662CAD
:1038CA006C2C7008F2027108031CF303F302013036
:1038DA000310F10CF00CFF3E031D6D2C0130F402B5
:1038EA00031D782C792C5C2C750803197D2C7E2CF1
:1038FA00832CF209F309F20A0319F30A7308F10097
:10390A007208F0000800F501F11F8C2C8D2C942C04
:10391A00F009F109F00A0319F10AF501F50AF31F92
:10392A00972C982CA12CF209F309F20A0319F30A2D
:10393A000130FF007F08F506F601F70170087104EF
:10394A000319A82CA92CE02CF401F40AB72C013095
:10395A000310F00DF10DFF3E031DAD2C0130FF00E9
:10396A007F08F407F11FBA2CBB2CAC2C01300310D2
:10397A00F60DF70DFF3E031DBC2C71087302031DE3
:10398A00C82C70087202031CCB2CCC2CD32C7008C8
:10399A00F2027108031CF303F302761401300310D8
:1039AA00F10CF00CFF3E031DD42C0130F402031D70
:1039BA00DF2CE02CBB2C75080319E42CE52CEA2C2F
:1039CA00F609F709F60A0319F70A7708F1007608E3
:1039DA00F00008000030FC000030FB000030FA0064
:1039EA000030F90083120313071487100718FE2CFE
:1039FA00FF2CFB2CF80187147908F4007A08F500EB
:103A0A007B08F6007C08F70001300310F40DF50D71
:103A1A00F60DF70DFF3E031D0A2D7708FC00760808
:103A2A00FB007508FA007408F9008710071C1E2DA0
:103A3A001F2D2D2D0130F907003003180130FA0728
:103A4A00003003180130FB07003003180130FC076F
:103A5A000130FF007F08F80718307802031C362D62
:103A6A00372D002D871400307906F40000307A06CD
:103A7A00F50080307B06F60000307C06F7007708F8
:103A8A00FC007608FB007508FA007408F900871034
:103A9A007C08F3007B08F2007A08F1007908F0004C
:103AAA00080083120313A101F31F5C2D5D2D6A2DFB
:103ABA00F009F109F209F309F00A0319F10A0319E5
:103ACA00F20A0319F30AA101A10AF71F6D2D6E2D3F
:103ADA007D2DF409F509F609F709F40A0319F50A1F
:103AEA000319F60A0319F70A0130FF007F08A10635
:103AFA000030A5000030A4000030A3000030A2006E
:103B0A00730872047104700403198C2D8D2DDA2D3B
:103B1A00A001A00A9D2D0130F8000310F00DF10D4F
:103B2A00F20DF30DF80B922D0130FF007F08A0076C
:103B3A00F31FA02DA12D902D0130F8000310A20D26
:103B4A00A30DA40DA50DF80BA32D73087702031D71
:103B5A00B82D72087602031DB82D71087502031D6F
:103B6A00B82D70087402031CBB2DBC2DCB2D700818
:103B7A00F4027108031C710FF5027208031C720F1C
:103B8A00F6027308031C730FF702221401300310A4
:103B9A00F30CF20CF10CF00CFF3E031DCC2D01309E
:103BAA00A002031DD92DDA2DA12D21080319DE2D1E
:103BBA00DF2DEA2DA209A309A409A509A20A03195E
:103BCA00A30A0319A40A0319A50A2508F30024085D
:103BDA00F2002308F1002208F00008000030700506
:103BEA00F80000307105F90080307205FA007F3064
:103BFA007305FB007B087A0479047804031D062EFA
:103C0A00072E0F2E0030F3000030F2000030F100D2
:103C1A000030F00000307405F80000307505F90036
:103C2A0080307605FA007F307705FB007B087A043E
:103C3A0079047804031D222E232E2B2E0030F70040
:103C4A000030F6000030F5000030F400F31F2E2E8D
:103C5A002F2E532E0030F8000030F9000030FA0001
:103C6A008030FB007008F8027108031C710F3E2EA9
:103C7A003F2EF9027208031C720F442E452EFA02D7
:103C8A007308031C730F4A2E4B2EFB027B08F300AA
:103C9A007A08F2007908F1007808F000F71F562E2A
:103CAA00572E7B2E0030F8000030F9000030FA0061
:103CBA008030FB007408F8027508031C750F662E25
:103CCA00672EF9027608031C760F6C2E6D2EFA0207
:103CDA007708031C770F722E732EFB027B08F700FE
:103CEA007A08F6007908F5007808F4008030F306BF
:103CFA008030F70677087302031D8D2E760872024C
:103D0A00031D8D2E75087102031D8D2E7408700215
:103D1A000318902E912E932E0310942E031408004C
:103D2A000A168A15EF240A168A15730883120313D2
:103D3A00B7007208B6007108B5007008B4000A1618
:103D4A008A15EF240A168A15730883120313BB0017
:103D5A007208BA007108B9007008B8000A168A1504
:103D6A00EF240A168A15730883120313BF00720818
:103D7A00BE007108BD007008BC000A168A15EF243F
:103D8A000A168A15730883120313C3007208C20045
:103D9A007108C1007008C0004008A8004108A900C5
:103DAA004208AA004308AB003C08AC003D08AD003D
:103DBA003E08AE003F08AF0034083807B0000030B4
:103DCA00031801303507B2010318B20A3907B100E6
:103DDA000318B20A36083207B3010318B30A3A07BE
:103DEA00B2000318B30A370833073B07B300300899
:103DFA00AC0731080318310F032F042FAD0732081F
:103E0A000318320F092F0A2FAE0733080318330A93
:103E1A00AF072C08A8072D0803182D0F152F162FEA
:103E2A00A9072E0803182E0F1B2F1C2FAA072F08CD
:103E3A0003182F0AAB072B08C7002A08C60029084F
:103E4A00C5002808C4000030F3000030F20000303A
:103E5A00F1000430F0004708F7004608F60045086C
:103E6A00F5004408F4000A168A1556250A168A151A
:103E7A00710883120313C9007008C8004908A70013
:103E8A004808A6000800F800780803194D2F4E2F9D
:103E9A00622FF31F512F522F622F7009FA007109F6
:103EAA00FB007209FC007309FD00FA0A0319FB0AF8
:103EBA000319FC0A0319FD0A6A2F7308FD00720828
:103ECA00FC007108FB007008FA00730872047104A0
:103EDA007004031D712F722F7B2F0030F300003006
:103EEA00F2000030F1000030F000FF2F9630F900A8
:103EFA008B2F0130FF007F08F90701300310FD0CFA
:103F0A00FC0CFB0CFA0CFF3E031D832FFE307D05D3
:103F1A00031D902F912F7E2FAD2F0130FF007F08B8
:103F2A00F9070130FA07003003180130FB070030A7
:103F3A0003180130FC07003003180130FD07013077
:103F4A000310FD0CFC0CFB0CFA0CFF3E031DA52F05
:103F5A00FF307D05031DB22FB32F922FBF2F0130E3
:103F6A00F9020130F4000310FA0DFB0DFC0DFD0DF2
:103F7A00F40BB82FFC1BC22FC32FC92F02307902B2
:103F8A000318C82FC92FB42F7918CC2FCD2FD52FAE
:103F9A00FF30FA05FF30FB057F30FC05FF30FD05D9
:103FAA000310F90C7908F400F501F601F70118304D
:103FBA000310F40DF50DF60DF70DFF3E031DDD2F71
:103FCA007408FA047508FB047608FC047708FD04F3
:103FDA0078080319F12FF22FF72FF31FF52FF62F79
:103FEA00F72FFD177D08F3007C08F2007B08F1002B
:063FFA007A08F000080047
:02400E00723FFF
:00000001FF
